:100000000C9441050C945E050C945E050C945E0501
:100010000C945E050C945E050C945E050C945E05D4
:100020000C945E050C945E050C945E050C945E05C4
:100030000C945E050C945E050C945E050C945E05B4
:100040000C94D8330C945E050C94E2320C94AD32CF
:100050000C945E050C945E050C945E050C945E0594
:100060000C945E050C945E056E616E00696E660010
:1000700000407A10F35A00A0724E18090010A5D45F
:10008000E80000E87648170000E40B54020000CABC
:100090009A3B000000E1F505000080969800000002
:1000A00040420F000000A086010000001027000061
:1000B0000000E803000000006400000000000A00E7
:1000C000000000000100000000002C76D888DC67EA
:1000D0004F0823DFC1DFAE59E1B1B796E5E3E45342
:1000E000C63AE651997696E8E6C28426EB898C9B5F
:1000F00062ED407C6FFCEFBC9C9F40F2BAA56FA5FF
:10010000F490055A2AF75C936B6CF9676DC11BFC80
:10011000E0E40D47FEF520E6B500D0ED902E03009B
:10012000943577050080841E080000204E0A0000E8
:1001300000C80C333333330F986E12831141EF8DA7
:100140002114893BE65516CFFEE6DB18D1844B38E7
:100150001BF77C1D901DA4BBE424203284725E2218
:100160008100C9F124ECA1E53D270606DD069606CF
:100170000106D6068F06756E646566696E65643A1B
:10018000202573006E6F7420696E206C6F6F700095
:10019000417373657274696F6E4572726F7200732A
:1001A0007461636B206F766572666C6F770053794C
:1001B0006E746178206572726F72206174202225DE
:1001C00073222E00626164206172672022257322EF
:1001D0000062616420617267732E2077616E7465BE
:1001E0006420256420676F74202564007A65726F2F
:1001F000207374657000696E76616C69642074792F
:1002000070653A2025700074797065206D69736D92
:10021000617463683A20257020257000696E7661EC
:100220006C69642076616C75653A202570007825CC
:100230003032780025640025733A25642000A91225
:10024000E512B4126F7574206F66206D656D6F7264
:100250007900AF1CB21CE01CF12BFA2BFA2BDC1539
:10026000E315EB158402FC073E02A8033E02AA0335
:100270007001AC037001A5035202F30300000001FA
:100280006A011F03AF20C920BA2001FB050001EF5E
:10029000050000EE3000FFB930000093300001602F
:1002A000050001F4050000492F0000202F00015433
:1002B0002F0001D20500FF65050001672F000194A2
:1002C0002F00014E30000141300001BF2F000052CD
:1002D0002E0000EC2E0001A42E0000152F00001AA5
:1002E000300000CD0500015D2E000041340001FD0D
:1002F00033000000604100007041000080410000B8
:10030000884100009041000098410000000000007A
:10031000803F0000204100003041000040410000CB
:1003200050410000004000004040000080400000BC
:10033000A0400000C0400000E0400000004100007C
:10034000104100000000FCFFFFFF0000803F6162E1
:10035000730063687200656570726F6D2E657261FF
:10036000736500656570726F6D2E73686F770065D9
:100370006570726F6D2E7772697465006C656E00C2
:100380006D6174682E73717274006F6666006F6EB3
:10039000006F6E666F72006F7264007072696E74C7
:1003A0000070756C6C6E6F6E650070756C6C75703E
:1003B0000072616E646F6D2E72616E6472616E6741
:1003C000650072616E646F6D2E73656564007265A1
:1003D0006164007265736574007365746C6566743E
:1003E00000736574706F7765720073657472696706
:1003F00068740073746F70616C6C007379732E7322
:1004000074646F75742E666C7573680074616C6BC0
:10041000746F0074696D652E6D6F6E6F746F6E69A9
:10042000630074696D652E736C6565700041300002
:100430004131004132004133004134004135004434
:100440003000443100443130004431310044313215
:100450000044313300443200443300443400443516
:100460000044360044370044380044390046616C8B
:100470007365004E6F6E65005472756500656E643D
:10048000001D616E640012617373657274000D6209
:100490007265616B000E636F6E74696E7565000244
:1004A000646566001164656C0014656C696600150E
:1004B000656C73650017666F720010676C6F626120
:1004C0006C001369660007696D706F7274001869BB
:1004D0006E00206973001E6E6F74001C6F72000F37
:1004E00070617373001972616E6765000C726574D8
:1004F00075726E00167768696C65006D69736D6161
:10050000746368696E6720696E64656E746174698E
:100510006F6E20696E64656E742025642065786452
:10052000656E74202564004F7574206F66204D65DC
:100530006D6F727900B002061E2240474A4C505738
:100540005C5E60626466686A6E70717375797B0068
:100550007C7E80828486888A8C8E9094989A9C9ED9
:10056000A4A7A9ACAE434BFFFF02FE00FF00FE00B4
:10057000FF05FE04FF0314FE04161953FE08FF1EB8
:100580002E304451575B949CABB0B2B9BCC0C2FE94
:100590000A5F626A6E72767A80FE0D2C898A8EFE00
:1005A00016090B0F3439A4FE1B919EAAFE1BFFAA4D
:1005B000FF93FE25FF8DFE26FF83FE28FF7FFE2A88
:1005C000FF79FE2CFF75FE2EFF71FE30FF6DFE32AF
:1005D000FF66FE34FF5EFE36FF5AFE38FFB6FE3A77
:1005E000FF13FE3CFF0A0EACAFB1B8BBFE3EFF9D51
:1005F000FE3AFF9596989AFE4508FE04FF0C2936B0
:10060000ADB7BEFE3E1131B4FE3AFF2B2F33353865
:10061000FE3AFF181D54434B000314FE531BFE53B8
:10062000FF1FFE0AFF21FE0AFF22FE0AFF23FE0A29
:10063000FF24FE0AFF25FE0AFF27FE0AFF17FE0819
:10064000FF3A3DFE6C3FFF4149FFFF3B46FE6C3CDD
:100650004CFE6C64FE34FF68FE77FF4FFF15FE0012
:10066000FF58FE38FF5CFE36FF60FE0DFF67FE7729
:10067000FF69FE77FF6BFE32FF6FFE30FF73FE2EC9
:10068000FF77FE2CFF7B88AA838D93FE167D86AABA
:10069000838D93FE1681FE28FF84FE16FF8BFE26B7
:1006A000FF8FA0AAFE1BFFB1B8BBFE3CFF979B9D2E
:1006B000FEA1FFA2FE1BFFBDBFC1FE3AFFA5FE1BB0
:1006C000FFA6A8FE1B303083310000000030000080
:1006D0000031AD38890000000031B24C060532040B
:1006E000860391020031030700323300003200001C
:1006F0000033343500343435080000000034000085
:1007000000353698030000000036A24D09000000B5
:1007100000369200003737380037000000383900C3
:100720000038449A00380A0000390A3A3B94000025
:10073000003A3A3B0B000000003A0000003B3F004B
:10074000003B873E0C000000003B8C0D003B900EF0
:10075000003B0F00003B4110003B3C3D11000000FE
:10076000003B884D12000000003C3C3D08000000AA
:10077000003C0000003D7E9564000000003E4D00FE
:10078000003E8500003F404D00407E4DB309000013
:10079000004000000041424300410000004242434B
:1007A000080000000042000000439603004445009A
:1007B0000044480000444A000045AE464C47130040
:1007C0000046AA464C47A81400464C7F0615000078
:1007D00000468A0000479E064D0000000048784908
:1007E000A54C9E064D168A0000494C0615000000D7
:1007F00000490000004A7849A74C4B1886031700AF
:10080000004BAF06056F0419004BA0064D00000019
:10081000004C3900004CAC1B37388B1A0A00000022
:10082000004D4E4F004E4E7C4F9D1C00004E000070
:10083000004F50510050507C519E1D000050000050
:100840000051520000517A51791E00000052A95304
:10085000805500000053537D55B4540000530000F0
:1008600000541F0000541800005420000055565733
:100870000056567D577B21000056000000575859FE
:100880000058587D597B22000058000000595A5BDF
:10089000005A5A7D5B7B2300005A0000005B5C5DC0
:1008A000005C5C7D5D7B2400005C0000005D5E5FA1
:1008B000005E5E7D5F7B2500005E5E7D5F7B2600C7
:1008C000005E0000005F60610060607D617B27006A
:1008D0000060000000617A617928000000617A619F
:1008E000842600000061612500616200006263648B
:1008F00000637D63647B2900006300000064656B16
:10090000006565B02B668D2A00656597056F8D04BF
:10091000006500000066674D0066688000676881BA
:1009200000678000006881696A06000000696A0645
:1009300000698000006A4D99006A8000006BA10583
:100940006D040000006BA62B6F2A0000006B9B2D2E
:1009500074802C00006B9303006B8E2E006B6C8FE9
:100960002F000000006C6CA42F000000006C000041
:10097000006D6E4D006D8000006EA36F8D0800004D
:10098000006E8200006F7000006F80000070727156
:100990004D80000000719F4DB10900000071AB0057
:1009A0000072730800720000007372714D00000045
:1009B00000730000007475770074000000757608FD
:1009C00000750000007675770076000000779C4D7A
:1009D000069C4D00003C6275696C74696E2025733D
:1009E0003E003C66756E6374696F6E2061742025ED
:1009F000643E00252E3967000000002000208000A2
:100A000000802080000000000000B00000004400D2
:100A100044000000000080008000B00000000000E2
:100A20000000B400000048004700000000008800FB
:100A30008A00B300082008005E430A00CDCCCC3DFC
:100A40000AD7233C17B7D13877CC2B329595E624BB
:100A50001FB14F0A000020410000C84200401C4660
:100A600020BCBE4CCA1B0E5AAEC59D7457656C6344
:100A70006F6D6520746F20536E656B20312E350AC3
:100A8000000011241FBECFEFD8E0DEBFCDBF11E0C4
:100A9000A0E0B1E0E8E7FDE702C005900D92A637BF
:100AA000B107D9F728E0A6E7B1E001C01D92A03256
:100AB000B207E1F70E9492340C94BA3E0C94000005
:100AC0000E947B270E944D260895A0E0B0E0EBE64F
:100AD000F5E00C94A23BC82F162F7A01DFEFD80F58
:100AE0006A01DF3FC9F0F601419151916191719125
:100AF0006F0123E780911C0890911D080E947B26BE
:100B0000DD2341F060911C0870911D0880E290E0A7
:100B10000E94933DD150E5CFC701E4E0CE9F800D08
:100B2000911D1124EC018CEFC82EDD24DA94ED2CFC
:100B3000FD2C115098F09C80AD80BE800F816881A3
:100B400079818A819B810E9437396233710521F452
:100B5000C92CDA2CEB2CF02E2896EBCF80911C08B8
:100B600090911D08FCEFCF16FFEFDF06EF06FF06A2
:100B700031F023E7B701A6010E947B2605C0BC0126
:100B80008AE090E00E94933D6CEF7FEF8FEF9FEF44
:100B9000CDB7DEB7EBE00C94BE3B6CEF7FEF8FEF91
:100BA0009FEF0895CF92DF92EF92FF926B017C014D
:100BB0000E946126823029F0C701B6010E946212AC
:100BC00009C0C701B6010E940A26FC01808190E09D
:100BD0000E944D26FF90EF90DF90CF9008950E94E5
:100BE000D7270E945A2908950E94BE270E94FE3AE4
:100BF0000E94352608950E94BE279F770E943526C1
:100C00000895FC018081918102960895809176017A
:100C1000909177010895EF92FF920F931F93CF93D6
:100C2000DF93EC017B018091760190917701209117
:100C30001B0330911C032C0F3D1F82179307E8F410
:100C400080960E945D208C01009779F140911B03F2
:100C500050911C0360911F03709120030E94E13C9E
:100C6000809176019091770180969093770180939F
:100C700076011093200300931F03A0911F03B091EE
:100C8000200380911B0390911C03AE01B7018A0FD2
:100C90009B1F0E94E13C40911B0350911C03C40F19
:100CA000D51FD0931C03C0931B03CDB7DEB7E6E07E
:100CB0000C94C33BCF92DF92EF92FF920F931F935E
:100CC000CF938C017B0140E050E04E155F05F8F4B6
:100CD0006A012FEFC21AD20AF801E40FF51FC08192
:100CE000CF77CD3229F4C8018C0D9D1D0E94641F61
:100CF000C650CD3330F4EC2FF0E0EF5DFE4F808135
:100D000001C080E09601280F311DA901DECFCF91EF
:100D10001F910F91FF90EF90DF90CF900895FC010D
:100D200061917191CF010E945A06089560911B0351
:100D300070911C030E945A060895CF92DF92EF92A1
:100D4000FF920F931F93CF938C017B0140E050E003
:100D50004E155F0518F56A012FEFC21AD20AF80185
:100D6000E40FF51FC081CF77CD3249F4F801EC0DC7
:100D7000FD1D6081718188E592E00E940E1FC650C2
:100D8000CD3330F4EC2FF0E0EF5DFE4F808101C0F9
:100D900080E09601280F311DA901DACFCF911F9174
:100DA0000F91FF90EF90DF90CF900895FC0161913B
:100DB0007191CF010E949D06089560911B0370916F
:100DC0001C030E949D06089580911D0390911E03AF
:100DD00090931C0380931B032091190330911A03F5
:100DE00030931E0320931D030895A1E0B0E0EBEFC4
:100DF000F6E00C94AB3B898380911D0390911E0318
:100E000090931A038093190320911B0330911C03C4
:100E100030931E0320931D03BE016F5F7F4F81E05F
:100E200090E00E940B062196E2E00C94C73BA2E002
:100E3000B0E0EDE1F7E00C94AB3B7A8369830E946C
:100E4000F506BE016F5F7F4F82E090E00E940B06C7
:100E50002296E2E00C94C73BA1E0B0E0E2E3F7E0C9
:100E60000C94AB3B69830E94F506BE016F5F7F4F18
:100E700081E090E00E940B062196E2E00C94C73BD3
:100E8000A4E0B0E0E6E4F7E00C94A63B7B018C0123
:100E900069837A838B839C830E943039D62E062EF9
:100EA000000C770B880B990B0E9468399B01AC01F1
:100EB000B701C8010E94B938811105C06D2D8CE2BF
:100EC0000E942C070AC08BE20E94F506BE016F5FEC
:100ED0007F4F84E090E00E940B062496E7E00C949C
:100EE000C23BCF93DF93EC010E94D62960E070E013
:100EF0008DE20E941707CE010E94E6290E94A720DA
:100F0000E0911F03F091200320911D0330911E03F7
:100F1000E20FF31F92838183DF91CF910895A3E0C5
:100F2000B0E0E5E9F7E00C94AB3B9A8389834B830F
:100F300070E08EE30E941707BE016D5F7F4F81E076
:100F400090E00E940B06BE016F5F7F4F82E090E051
:100F50000E940B0660E070E08FE30E941707BE015D
:100F60006D5F7F4F81E090E00E940B06BE016F5FD6
:100F70007F4F82E090E00E940B062396E2E00C9403
:100F8000C73BA3E0B0E0E7ECF7E00C94A73B9A8303
:100F90008983062F6B8310E0000F111F9BEFE92E52
:100FA000FF24FA94B701601B710B89E20E941707B6
:100FB00060E070E0CB010E9440070F5F1F4FB70158
:100FC000601B710B89E20E94170760E070E080E40B
:100FD0000E941707BE016D5F7F4F81E090E00E9485
:100FE0000B06BE016F5F7F4F82E090E00E940B0610
:100FF0002396E6E00C94C33BEF92FF920F931F936E
:10100000CF93DF9350E08617970790F500911F0369
:1010100010912003EC012196D801A80FB91F8C91E3
:10102000982F9F779D33A9F40C0F1D1FF8010081A5
:1010300011817801FF24E416F50659F48078812B9C
:101040008C93A0911F03B0912003AC0FBD1F2D9373
:101050003C93BAEFB90FBD3330F4EB2FF0E0EF5D06
:10106000FE4F808101C080E0C80FD11DCE01CBCFE3
:10107000CDB7DEB7E6E00C94C33B10921C03109290
:101080001B031092770110927601109220031092A8
:101090001F0308950F931F93CF93DF9380911B033A
:1010A00090911C030097C1F002960E945D20EC0114
:1010B000009771F000911B0310911C0360911F03B6
:1010C00070912003A80102960E94E13C19830883D5
:1010D0000E943D08CE0102C080E090E0DF91CF91F8
:1010E0001F910F910895FC014081518120E030E073
:1010F00024173507F0F4B9016F5F7F4FFC01E20F51
:10110000F31FA281A23431F4FC01E20FF31F8381AB
:1011100094810895A650AD3330F4EA2FF0E0EF5DEE
:10112000FE4F208101C020E0FB01E20FF11D9F0175
:10113000DFCF80E090E008950E9477219F938F9306
:1011400086E791E09F938F930E9467110F900F9015
:101150000F900F9008958F929F92AF92BF92CF926F
:10116000DF92EF92FF926B017C010E9430394B01BC
:101170005C010E9468399B01AC01C701B6010E9465
:10118000B938882331F0C701B6010E9435260E9484
:101190003912C501B401FF90EF90DF90CF90BF905E
:1011A000AF909F908F900895A5E0B0E0EAEDF8E051
:1011B0000C949B3B4B015C014D83280139014E305F
:1011C00098F501E04C3008F400E0A3019201C5015C
:1011D000B4010E949326982F7D817330D1F020F4C2
:1011E000713079F090F409C0FD81FC3031F0FD30B0
:1011F00041F0F43091F480950CC081E0992389F09E
:101200000FC081E091110DC00BC081E019164CF0A8
:1012100007C0881F8827881F04C081E019160CF4B6
:1012200080E00E945626EDC10E946126182FC3015E
:10123000B2010E9461264D814031C9F4113069F03C
:10124000123009F060C1C501B4010E940A2621E0F4
:10125000B301A2010E9469294FC1C501B4010E94D6
:101260000A2621E0B301A2010E94071B45C11430E8
:1012700009F0C7C0843009F052C1C501B4015D81D5
:10128000563109F46AC0E8F4533109F458C048F4FF
:10129000513109F44DC0523109F0B0C0A30192019F
:1012A0006CC0AD81A43109F451C0A53109F0A6C0CC
:1012B000A3019201C501B4010E94BE380E94A33966
:1012C0009DC0BD81B93109F464C0A8F4B73109F4F7
:1012D00059C0B83109F092C0C501B4010E94AB08F1
:1012E0006B017C01C301B2010E94AB086C217D211E
:1012F0008E219F2181C04D814B3109F468C008F4D3
:1013000057C04C3109F07AC0C501B4010E94AB0846
:101310006B017C01C301B2010E94AB08D701C60179
:1013200004C0B595A795979587956A95D2F762C041
:10133000A3019201C501B4010E944D385FC0A30111
:101340009201C501B4010E948B3A58C0A3019201D9
:10135000C501B4010E94BE3851C0A3019201C5016C
:10136000B4010E94BE380E94A3399B01AC01C301A5
:10137000B2010E948B3A9B01AC01C501B4010E94ED
:101380004C383CC0A3019201C501B4010E94ED2C70
:1013900035C0C501B4010E94AB086B017C01C301DB
:1013A000B2010E94AB086C297D298E299F2924C097
:1013B000C501B4010E94AB086B017C01C301B201FD
:1013C0000E94AB086C257D258E259F2515C0C50183
:1013D000B4010E94AB086B017C01C301B2010E9401
:1013E000AB08D701C60104C0880F991FAA1FBB1FF5
:1013F0006A95D2F7BC01CD010E9468390E9435265A
:101400007BC03D81313159F010F4732F8DC02D8197
:10141000233109F43EC0263109F464C074C01813A6
:1014200072C0113091F0123009F06DC0C301B201E9
:101430000E940A269A838983C501B4010E940A2664
:1014400069817A810E94D42B57C0C501B4010E94E2
:101450000A269A838983C301B2010E940A26BC012D
:10146000FC0154815370E981FA818481837058139F
:101470004AC0523009F447C0EE2031F0513021F01B
:10148000CF010E947F1B2AC089819A810E94BE1BC6
:1014900025C08430C1F5C301B2010E94D7279A83C9
:1014A000898397FD37C0113059F0123061F5C501BD
:1014B000B4010E940A2669817A810E949E291CC07B
:1014C000C501B4010E940A26FC01948193709230F8
:1014D000D1F069817A81CF010E940E1C61E00E94E7
:1014E00018260AC0123079F4C501B4010E940A26F8
:1014F000B301A2010E94EA2A643FFFEF7F078F0732
:101500009F0709F07EC0A3019201C501B4010E94AA
:101510004A1277C06CEF7FEF8FEF9FEF72C06D8143
:10152000633189F380F7762F7E50723060F7813017
:1015300021F0823009F447C0E6CFC301B2010E9416
:101540000A269A838983FC01F481F370F23021F03A
:10155000EE24E394F12C03C092E0E92EF12C170164
:10156000220C331C220C331C3C822B82C12CD12C2C
:10157000212C312CE981FA81208131812216330618
:10158000C8F489819A810E94C4188C0D9D1DFC01AC
:10159000208131814281538100E0C501B4010E9464
:1015A00093266B817C81C60ED71E882329F02E0CD2
:1015B0003F1CE0CF40E001C041E0A1E03D813E3072
:1015C000D1F0A0E018C0123009F09DCFC501B401E0
:1015D0000E940A268C01C301B2010E940A26B801AA
:1015E0000E94203DA1E0892B09F4A0E041E0BD81EB
:1015F000BE3009F040E081E0A41380E00E9456264E
:101600007BCF2596E2E10C94B73B409123035091A8
:1016100024034032510529F48FE991E00E943212EF
:1016200008959A012F5F3F4F3093240320932303A3
:10163000DA01AA0FBB1FAA0FBB1FFD01EB5DFC4F18
:1016400060837183828393830895809123039091B3
:10165000240301979093240380932303880F991FF9
:10166000880F991FFC01EB5DFC4F608171818281C5
:10167000938108952091230330912403215031094F
:10168000F901E81BF90BEE0FFF1FEE0FFF1FEB5DDB
:10169000FC4F6081718182819381089520912303A1
:1016A00030912403281B390B309324032093230308
:1016B00008950E94250B0E94BE2708950E94590B91
:1016C0000E943039CB010895AFE0B0E0EAE6FBE0DC
:1016D0000C949B3B9093A6038093A5032091230336
:1016E000309124033E872D87C12CD12C4BEF242E23
:1016F00033243A948091A5039091A603892B09F095
:1017000062C01092A6031092A5031092AB03109230
:10171000AA038D859E859093240380932303609173
:1017200000017091010180910201909103010CEF81
:101730001FEF2FEF3FEF0093000110930101209363
:101740000201309303012F96E2E10C94B73B56015E
:101750003FEFA31AB30ABF016C0D7D1DDB0112968A
:101760004C91B42FBB1FBB27BB1FBC874F7748874B
:10177000443309F4DDC190F158855C3309F4A2C308
:1017800008F464C09885903409F4D0C408F47CC08F
:101790005885523409F463C508F480C0533409F401
:1017A0006BC565011091A7031111ABCFFC85FF2319
:1017B00051F06091000170910101809102019091BE
:1017C00003010E94050BE091A503F091A60300819F
:1017D0001181C016D10608F4BACF5BC54B3290F424
:1017E0004D3108F094C0409000015090010160908C
:1017F0000201709003014C3008F074C0463008F4C8
:1018000071C04EC0B885B133D0F4BE3208F02AC1E1
:10181000BC3209F409C196012D5F3F4FBD3208F07B
:101820001AC1BF01620F731F44E050E080E091E0F5
:101830000E94E13C5601F5E0AF0EB11CB2CF988595
:10184000923309F452C108F41AC166C1583309F43D
:10185000FBC250F4563309F41EC286010D5F1F4FC0
:10186000573308F47AC1E8C2B885BA3309F41CC307
:10187000609100017091010180910201909103013A
:10188000BB3308F408C315C39E3309F436C308F00C
:10189000D5C384E891E00E94321283CF580181CFF2
:1018A00080E090E00E943A0B48854650E12C93017D
:1018B00082010E94D4084B015C010E9432279601EC
:1018C0002D5F3F4F811117C380920001909201015B
:1018D000A0920201B0920301A090A503B090A603CC
:1018E000F50104C380E090E00E943A0BE12C9301E3
:1018F000820148850E94D408609300017093010121
:10190000809302019093030181E090E0C1C183E0E4
:10191000C80ED11CEC0DFD1D80809180560198856C
:101920009A3239F4C4010E94851481113ACF39E208
:10193000388781149104E1F07885793261F461E0AF
:101940000885093209F060E0C4010E946214009722
:1019500009F059C00BC08091AA039091AB03892B69
:1019600071F3C4010E9485148111E9CFC401BAC08A
:101970000E94250B6B017C010E94250B2B013C0171
:101980000E946126813019F0C301B20171C2C30106
:10199000B2010E940A26FC01548153705130A1F318
:1019A00021E0B701A6010E94AC1A009709F4F9CE14
:1019B000F885F93259F120912303309124032E5FE9
:1019C0003F4F309324032093230300910001109193
:1019D0000101209102013091030148854C50DC0146
:1019E0006D917D918D919C91EE24E3940E94D40899
:1019F00060930001709301018093020190930301B1
:101A000069E2688796CF18851932F9F6409100018E
:101A1000509101016091020170910301FC0140832A
:101A2000518362837383BDCEEA0DFB1D6281062E56
:101A3000000C770B880B990B0E94683960930001AA
:101A4000709301018093020190930301560122E0FB
:101A5000A20EB11CA6CEE20FF31F80819181590125
:101A600082602EC033E0C30ED11CEC0DFD1D56016B
:101A700068856E52808191810E94191B44C083E069
:101A8000C80ED11CEC0DFD1DE080F180560160E018
:101A9000C7010E946214009731F0FC01808191819E
:101AA000A281B381EDC3F2E3EF16F104D0F42BE190
:101AB000E216F10450F4C701880F991F880F991F8F
:101AC000A0E0B0E0A068BF6FDBC3F701EE0FFF1F1F
:101AD000EE0FFF1FEA57FD4F85919591A591B491A7
:101AE000CFC3C7010E949C085CCE60910001709139
:101AF000010180910201909103010E94322731E09F
:101B000083270E9456266093000170930101809301
:101B100002019093030145CE609100017091010193
:101B200080910201909103010E94BE27905812C03B
:101B30006091000170910101809102019091030177
:101B40000E94BE270E94AB08609570958095909585
:101B50000E9466390E943526D6CFE00FF11FA08083
:101B6000B1807501FF248B2C99242401440C551C51
:101B700032016E0C7F1CC3010E943A0B609300017E
:101B80007093010180930201909303010E946126EA
:101B9000882331F1833009F06EC0A601682D8A2DAB
:101BA0000E944C15882309F470C00E94250B609395
:101BB00000017093010180930201909303010E9440
:101BC0000A26DC0112968D919C9113970E949D200C
:101BD0009093A6038093A503A12CB12C1C86E1CD84
:101BE000E0910001F0910101EC7FEA57FD4F4E0CAE
:101BF0005F1C409123035091240344195509440F5D
:101C0000551F440F551F4B5D5C4F7491C72E072E17
:101C1000000CDD08D7FE08C0319625913491682D5F
:101C20008A2DF90109951EC0EC14FD0411F48820D9
:101C300029F0B701C6010E947C1227C0772369F002
:101C4000713019F53196A590B490DA016D917D91BE
:101C50008D919C91F501099505C0319685919491DE
:101C6000FC010995609300017093010180930201CA
:101C7000909303010AC0609100017091010180916D
:101C80000201909103010E9462125801C301019662
:101C90000E944E0B86CDEA0DFB1D128112FF04C07F
:101CA0000E945E0B7C0103C0EE24E394F12C11FF33
:101CB00004C00E945E0B5C0104C0FCEFAF2EFFE786
:101CC000BF2E10FF04C00E945E0B8C0102C00CEFFF
:101CD0001FE70E94250B6093000170930101809320
:101CE0000201909303010E947B279C01E114F104FF
:101CF00019F40E9473129BC017FF02C0080F191F2E
:101D0000B7FE02C0A20EB31E1E141F049CF40C3FAB
:101D1000FFE71F0711F017FF02C000E010E08CEF93
:101D2000A8168FE7B806C9F0C901A216B306CCF40D
:101D3000C50117C00C3F9FE7190719F002171307D9
:101D40001CF0890101501109ACEFAA16AFE7BA06E1
:101D500031F0C501B7FE05C002C0C90102C08FEF56
:101D60009FEF1C830B83FE82ED828E0D9F1D41E051
:101D700050E01E141F0414F040E050E0FF2DFF1F40
:101D8000FF27FF1F4F1B5109841B950B801B910BD5
:101D9000B7010E945A3B77FF02C060E070E07A838F
:101DA0006983012B41F46217730729F461E0B1E004
:101DB000EB16F10409F060E061706F83609100013F
:101DC0007091010180910201909103010E946126AE
:101DD000813099F0823059F56091000170910101D4
:101DE00080910201909103010E940A26BE016F5F5B
:101DF0007F4F0E94F82962E010C06091000170914D
:101E0000010180910201909103010E940A26BE0106
:101E10006F5F7F4F0E944F1C61E00E941826609305
:101E20000001709301018093020190930301560118
:101E3000E2E0AE0EB11CB5CCE00FF11F580180817D
:101E400091810E94ED13ADCC23E0C20ED11CEC0DAC
:101E5000FD1D8081918156010097D1F40E94250BD0
:101E60006B017C010E946126813029F0C701B60117
:101E70000E94621296CC20910001309101014091A4
:101E8000020150910301C701B6010E94B21AF4C1C8
:101E90000E94901486CC0E9432278111EDC180E906
:101EA00091E00E943212E8C1EC0DFD1DA380B480C8
:101EB00078CC0E9432278111C3C1560193E0A90E4C
:101EC000B11C6FCC60910001709101018091020101
:101ED000909103010E94322796012D5F3F4F81119F
:101EE0000AC0C090A503D090A603F601E20FF31F2D
:101EF000A080B18056CC590154CC7F01EC0CFD1C64
:101F0000D7011396ED90FC901497C6010696998719
:101F10008887E80FF91F00811181DB011596DC909D
:101F2000DF86E2E0EE16F104B1F0F3E0EF16F10423
:101F300009F121E0E216F104A9F50E94590B2B01E9
:101F40003C01C12CD12CE0E8EE2EEFE3FE2E812CDB
:101F5000912C540130C00E94590B2B013C010E946E
:101F6000590B4B015C01C12CD12C70E8E72E7FE3AB
:101F7000F72E21C00E94590B6B017C010E94590B66
:101F80002B013C010E94590B4B015C0120E030E029
:101F9000A901C701B6010E94B93881110CC00E9485
:101FA000731249C0C7010E944E0BB70183E090E055
:101FB0000E947C1240C061E0C8010E9462148C0142
:101FC000892BC9F1A7019601C501B4010E944C38C3
:101FD0000E943526F80160837183828393833F8555
:101FE000032F10E0000F111F61E0C101801B910B56
:101FF0000E9462145C01892BF1F0C301B2010E94BE
:102000003526F50160837183828393830F5F1F4FB1
:1020100061E0C101801B910B0E9462148C01892B2D
:1020200051F0C701B6010E943526D8016D937D930A
:102030008D939C931397A884B984B3CBDB01159639
:10204000EC904601B6E08B0E911CE80DF91D60E0A6
:10205000808191810E9462148C01F12CEE0CFF1C96
:1020600060E0C1018E199F090E94621499878887D8
:10207000EFEFEE1AFE0A60E0C1018E199F090E947F
:1020800062140115110509F4DBC0C884D984CD2878
:1020900009F4D6C0009709F4D3C0FC0160817181B6
:1020A000828193810E94BE272B013C01F80160814F
:1020B0007181828193810E94BE279B01AC01C30183
:1020C000B2010E944D386B017C010E943526D80177
:1020D0006D937D938D939C931397E885F98560812B
:1020E0007181828193810E94BE27688779878A8760
:1020F0009B8720E030E0A901C301B2010E94863A2B
:10210000288539854A855B8518163CF4C701B601D8
:102110000E94863A87FF94C007C0C701B6010E949B
:10212000B93818160CF08CC054013BCBFB01E5808C
:10213000F12CEE0CFF1CC701019660E02101481A4A
:10214000590AC2010E9462144C01DC016D917D911B
:102150008D919C910E94D7278C0101960E944D265B
:10216000F401608371838283938360E0C1018E19DF
:102170009F090E946214DC014D905D906D907C90EF
:10218000C301B2010E9461268130A9F0823091F52D
:10219000C8010E944D26688779878A879B87C3017B
:1021A000B2010E940A2620E0488559856A857B8510
:1021B0000E94692924C0C301B2010E940A26FC01C1
:1021C00074817370723011F4000F111FDC014D9196
:1021D0005C9104171507A0F50E94C418000F111F89
:1021E000000F111F800F911FFC016081718182819E
:1021F000938105C0C301B2010E9462122BC06C3FE3
:10220000FFEF7F078F079F07D9F0E091A503F091BB
:10221000A603EC0DFD1D068117810E94050B61E0F0
:10222000C8010E9462148C010E94250B0115110542
:1022300039F0D8016D937D938D939C9313970AC0C9
:102240006091A5037091A603FB01EA0DFB1DA2801E
:10225000B380A7CA5601B6E0AB0EB11CA2CA23E0F8
:10226000C20ED11CEC0DFD1D208131815601309331
:1022700022032093210395CA8CEF9FEFAFEFBFEFAE
:102280008093000190930101A0930201B093030198
:1022900088CA0E9438146C01A091A503B091A603CE
:1022A000109709F427CAFD01E80FF91F128117FFE3
:1022B0000AC060910001709101018091020190912A
:1022C00003010E94050BE3E0CE0ED11C13CAA0E06F
:1022D000B0E0EDE6F1E10C94A03BC888D98880918C
:1022E000A7038111B8C001E00093A7038E010E5E21
:1022F0001F4F809022038F92909021039F92A09075
:102300000501AF92B0900401BF9287E392E09F93E2
:102310008F93E0901F08EF92F0901E08FF920E94AA
:10232000783D0FB6F894DEBF0FBECDBF8EE2A82E6B
:1023300082E0B82E94E3892E92E0992E7601FFEF89
:10234000EF1AFF0AF6018491882309F47CC08532D4
:1023500009F070C092E0C90ED11CF701249120371A
:1023600009F456C02337E1F0243641F77801F2E052
:10237000EF0EF11CF80111811F9330813F939F9262
:102380008F9240911F084F9350911E085F930E94B7
:10239000783D0F900F900F900F900F900F9048C0C6
:1023A000F801E080F1800E5F1F4FF70171907F010F
:1023B000772009F4C3CF60911E0870911F08FFE1D8
:1023C000F71508F18CE590E00E94933D6AE07612E3
:1023D00007C060911E0870911F088EE690E015C03E
:1023E0001F927F92BF92AF9270901F087F92709160
:1023F0001E087F930E94783D0F900F900F900F90D2
:102400000F900F90D2CF872D90E00E94933DCDCFBB
:102410007801F4E0EF0EF11CF801408151816281F6
:10242000738122E780911E0890911F080E947B26ED
:10243000870184CF60911E0870911F0890E00E9470
:10244000933D67017BCF60911E0870911F088AE061
:1024500090E00E94933D6CEF7FEF8FEF9FEFEDE0F8
:102460000C94BC3B9F938F930E9467110F900F9029
:1024700008959F938F937F936F938CE192E09F9346
:102480008F930E9467110F900F900F900F900F90F5
:102490000F9008955F934F933F932F939F938F9344
:1024A0007F936F9387E092E09F938F930E946711D1
:1024B0002DB73EB7265F3F4F0FB6F8943EBF0FBE15
:1024C0002DBF08959F938F937F936F9386EF91E035
:1024D0009F938F930E9467110F900F900F900F9012
:1024E0000F900F9008958CEE91E09F938F930E9430
:1024F00067110F900F9008957F936F939F938F9321
:1025000081ED91E09F938F930E9467110F900F9040
:102510000F900F900F900F9008950E9477219F9336
:102520008F9384EC91E09F938F930E9467110F909B
:102530000F900F900F9008959F938F938EEA91E0E4
:102540009F938F930E9467110F900F900F900F90A1
:102550000895FC012681378146E0429FC001439FD8
:10256000900D112408960895EF92FF920F931F93F8
:10257000CF93DF93EC017C0188E0E80EF11C00E0D2
:1025800010E08E819F810817190748F4C7010E9447
:10259000EA1F0F5F1F4F86E0E80EF11CF2CFBE016D
:1025A0006E5F7F4F80E791E00E943E20CE010E9447
:1025B000641F811105C0888199810E949D20DACF16
:1025C000CDB7DEB7E6E00C94C33BEF92FF920F93DA
:1025D0001F93CF93DF93EC017E0100E010E08E812A
:1025E0009F810817190798F4F70160857185828526
:1025F0009385683FFFEF7F078F079F0711F00E94C9
:10260000191F0F5F1F4F26E0E20EF11CE8CF6A8111
:102610007B8180E791E00E940E1F888199810E9452
:102620009D20EC01009739F0BC018EE392E00E94FE
:10263000DC1E882389F2CDB7DEB7E6E00C94C33BFD
:102640008091A8039091A903892B79F488E090E008
:102650000E945D209093A9038093A8032CEF3FEF85
:10266000FC0131832083338322838091A8039091DE
:10267000A9030895FF920F931F93CF93DF93F82E32
:102680008B0126E0269FC001279F900D11240896FC
:102690000E945D20EC01892BA1F0FF2021F00E9417
:1026A0002013FC0104C0E091AA03F091AB0398E071
:1026B000DE0101900D929A95E1F71F830E83CE0102
:1026C00002C080E090E0CDB7DEB7E5E00C94C43BFB
:1026D000CF92DF92EF92FF921F93CF93DF93182F49
:1026E0007B01D42E882319F00E94201304C080910E
:1026F000AA039091AB03009769F0EC01AE81BF8112
:1027000040E050E002C04F5F5F4F4A175B0729F47B
:10271000D11014C080E090E058C02696EE81FF8171
:10272000EE15FF0581F776E0749F9001759F300DDF
:102730001124285F3F4F820F931F47C0112319F0C8
:102740000E94201304C08091AA039091AB03FC0166
:10275000C680D780B6016F5F7F4F812F0E943A13EA
:10276000EC01892BB9F2112319F00E94201304C047
:102770008091AA039091AB03FC012681378166E02A
:10278000629FA001639F500D1124BC01685F7F4FC1
:10279000CE0108960E94E13C112329F0D093A903B1
:1027A000C093A80304C0D093AB03C093AA0386E0F0
:1027B0008C9DA0018D9D500D1124CA0108968C0F8F
:1027C0009D1FC40FD51FFD86EC86DF91CF911F9111
:1027D000FF90EF90DF90CF9008952091AA03309161
:1027E000AB03232B81F0BC0141E080E00E94681321
:1027F000009749F048EF5FEF6FEF7FEFFC014083F8
:102800005183628373830895EF92FF920F931F9316
:10281000CF93DF937C018B0126E0269FC001279F89
:10282000900D112408960E945D20EC01892BD1F0B7
:102830001F830E838091A5039091A6030E94A72079
:102840009B838A83FD82EC828091AA039091AB03E3
:102850000E94A72099838883D093AB03C093AA03D7
:1028600081E001C080E0CDB7DEB7E6E00C94C33B69
:10287000CF93DF93E091AA03F091AB03309739F443
:102880001092A6031092A50380E090E018C0D481B6
:10289000C581828193810E949D209093A60380939D
:1028A000A503E091AA03F091AB03808191810E947E
:1028B0009D209093AB038093AA038D2F9C2FDF91D3
:1028C000CF9108951F93CF93DF93EC01162F462FDE
:1028D000BC0180E00E946813009751F0FC01408128
:1028E000518162817381483F5F4F6F4F7F4F49F441
:1028F000412FBE0181E00E946813009711F480E02F
:1029000090E0DF91CF911F91089540E0BC0180E0FD
:102910000E94681321E0892B09F420E0822F08959A
:10292000A0E0B0E0E6E9F4E10C94A23BE091A8035A
:10293000F091A90366817781C0E0D0E0C617D70780
:1029400009F440C0369626813781AE014F5F5F4F54
:102950005A0128173907A1F56150710981E00E94D9
:102960003A137C01C090A803D090A90326E0922ED0
:102970009C9E80019D9E100D1124B601685F7F4FC3
:10298000A80108960E94E13CF6014681578141501A
:1029900051094C1B5D0B9A9CB0019B9C700D11243E
:1029A000685F7F4F6C0D7D1DC80108968E0D9F1DC1
:1029B0000E94E13CF092A903E092A80381E003C0E9
:1029C000EA01BCCF80E0CDB7DEB7EBE00C94BE3BB4
:1029D000EF92FF92A091AA03B091AB031696ED91EE
:1029E000FC9117977F0131E0E31AF10836E03E9D34
:1029F000F0013F9DF00D11243896EA0FFB1F329F26
:102A0000A00DB11D11241896AE17BF0738F424810C
:102A100035812817390751F03697F6CF958384838F
:102A2000408351836283738381E001C080E0FF9023
:102A3000EF900895CF93DF939093AD038093AC0311
:102A40008091040890E00296880F991F0E945D20F3
:102A5000EC018091AC039091AD031092AD03109204
:102A6000AC032097A9F00E94A7209B838A83409102
:102A70000408488380910208942F981B998350E0A2
:102A8000440F551F65E078E0CE0104960E94E13CBA
:102A9000CE01DF91CF9108954F925F926F927F9216
:102AA000BF92CF92DF92EF92FF920F931F93CF933B
:102AB000DF93D82FCA01CD2FC60F6C2F70E00E9474
:102AC0000414B82E882309F468C060910001709145
:102AD000010180910201909103010E940A267C016C
:102AE000FC0180818D1730F46D2F70E090E00E9422
:102AF0007C1250C00091230310912403CC2349F190
:102B0000C1500E94250B2B013C01CD1790F00E9473
:102B10005E0BBC01F7018081349690E0981739F084
:102B2000C190D1906C157D0559F09F5FF7CF6B0177
:102B30002AC0F701EC0FF11DEC0FF11DC480D58008
:102B40002C2FB301A201C6010E94E8148111D6CF37
:102B50001AC0E7012981A091AA03B091AB0380E0DC
:102B600090E08217D0F4FC011C964D915C911D976A
:102B700001961696452BA9F73296EE0FFF1FEE0D24
:102B8000FF1DC080D1801093240300932303C6014E
:102B90000E948D120E943814B12C8B2DDF91CF91A1
:102BA0001F910F91FF90EF90DF90CF90BF907F909B
:102BB0006F905F904F900895FC01808190E00296A5
:102BC000880F991F0895FC016281738180E791E06D
:102BD0000E940E1F0895BC016E5F7F4F80E791E059
:102BE0000E943E2008958A3051F4209106013091D0
:102BF0000701215031093093070120930601E0912C
:102C0000780191E09E0F90937801F0E0E758FE4F35
:102C10008083089510927E011092B1030895E0918F
:102C20007E01EF3379F091E09E0F90937E01F0E00A
:102C3000EF54FC4F8083E92FF0E0EF54FC4F1082FB
:102C400081E0089580E008950E94F315E0917E01EF
:102C5000EE2339F0E150E0937E01F0E0EF54FC4FB9
:102C60001082089590ED980F9A3010F4892F0895EE
:102C700080622FE9280F263010F4875508958FEFD2
:102C800008959091F103992319F091509093F103D5
:102C90000895E0917801EE2341F0E150E09378014E
:102CA000F0E0E758FE4F80810AC080911A089091A9
:102CB0001B080E943A3D8F3F2FEF920769F08A3040
:102CC00061F420910601309107012F5F3F4F30934F
:102CD000070120930601089580E00895CF930E9494
:102CE0004916C82F811102C080E005C00E940F164E
:102CF0008823D1F38C2FCF910895CF93DF93C82FE2
:102D0000D62F0E946E168D3331F00E942416D09378
:102D1000FE078C2F04C0D45FD093FE0789E0DF91BB
:102D2000CF910895A1E0B0E0E8E9F6E10C94A73B6B
:102D300001E08091B003811136C01092AF030E9470
:102D40004916803231F49091AF039F5F9093AF03A7
:102D5000F6CF811103C01092AF030DC090911908F6
:102D6000911102C08A3049F3833229F40E94491636
:102D70008A30E1F7E2CF0093B0030E94F31520916F
:102D8000F103211110C03091AF034091F2034317BA
:102D900030F44093FE073093F2038AE1F1C1341717
:102DA00010F40093AE035091AE03552381F060916F
:102DB000F10361110CC07091AF03A091F2037A1777
:102DC00020F47093FE078BE1DBC11092AE030E94EA
:102DD0000A160E946E16182F8C3209F468C050F53E
:102DE000853209F498C0A0F4803209F4A2CF38F4F7
:102DF000882309F475C18A3009F451C01CC182329C
:102E000009F4CBC008F4BDC0833209F40DC113C16D
:102E1000883209F44EC038F4863209F47EC0873215
:102E200009F4BBC008C18A3209F45FC008F055C07C
:102E300085E047C08E3309F495C088F48A3369F180
:102E400038F48D3209F44CC08F3209F459C0F3C004
:102E50008C3309F46BC008F077C08BE091C18B37DD
:102E600099F178F48D3561F18E3509F45CC08B35BC
:102E700009F0E1C02091F1032F5F2093F1038AE272
:102E80007FC18D3741F108F44BC08E3709F0D3C0B4
:102E9000F4E3F093FE0788E273C186E071C11092FB
:102EA000B003B091F103B11144CF8AE069C188E069
:102EB00067C18091F1038F5F8093F10384E060C16B
:102EC0008BE20E9441165CC18091F1038F5F809379
:102ED000F1038CE255C18DE2F4CF61E185E202C0DD
:102EE00062E186E20E947D164BC10E946E168A3214
:102EF00019F467E189E2F6CF0E94241663E105C068
:102F00000E946E168F3219F465E187E2EBCF0E94C2
:102F1000241664E1FACF66E1F8CF68E182E2E2CFFD
:102F200069E181E2DFCF6AE183E2DCCF0E946E16C5
:102F30008C3311F46BE11BC08D3311F4E5E026C036
:102F40000E942416E3E022C00E946E168D3319F40D
:102F50001092FE071DC00E94241699E29093FE076E
:102F600089E00EC10E946E168E3319F46CE184E282
:102F7000B9CF8D3311F4E4E009C00E942416E2E0D9
:102F800005C00E946E168D3329F4E1E0E093FE0740
:102F90008FE1F6C00E9424164EC00E940A160E94BD
:102FA0004916181313C080917E0190E001960E948B
:102FB0005D208C01009771F061EB73E00E940E3D83
:102FC0001093FF070093FE078FE2DAC08A3021F4E6
:102FD0000E94F31580E3D4C08C3509F50E94491690
:102FE000823751F020F48E36D1F48AE018C084374D
:102FF00029F0883729F013C08DE011C089E00FC097
:103000000E9449160E943216F0E18F0270011124CD
:103010000E9449160E9432168E2987FDDBCF0E943E
:103020000F168111BCCFD6CF0E9449168A30E1F726
:103030000E94F3157ECE30ED310F3A3010F01E3283
:10304000A1F50E940A1600E0812F0E940F16882326
:1030500009F4C0CF0E944916182FB0EDB80FBA304E
:1030600008F479C08E32F1F1E82FEF7DE53409F4F0
:103070007DC08D3209F47FC08B3209F47CC08F355E
:1030800009F471C0812F0E94F31560E070E081EBBC
:1030900093E00E94AA316093FE077093FF0780932C
:1030A0000008909301088EE26BC01F3539F017FDC0
:1030B00005C0106211561A3108F08CCF0E946E16AE
:1030C0008F35E1F387FDFACF8E32C1F340ED480F23
:1030D0004A30A0F3582F506251565A3138F4EECF8F
:1030E00081E04EC00111CECF01E0AECF0E94241688
:1030F000BE016F5F7F4F81EB93E00E94DC2069810E
:10310000662319F1A0910601B0910701B093FF0762
:10311000A093FE078E31910581F08032910539F040
:103120008831910569F57EE07093FE0729C02DE096
:103130004FE16CE08EE591E005C02FE04EE162E3E7
:1031400082E691E00E944E341BC09093FF0780936B
:10315000FE0783E015C0023089F008F475CF033014
:1031600009F472CF8FCF01118DCF74CF023008F0E8
:1031700089CF02E069CF023009F084CF03E064CF49
:103180002196E6E00C94C33BFC01868197810E9466
:103190009D200895A0E0B0E0E0EDF8E10C94A53B9F
:1031A0006B017C010E946126813011F080E024C017
:1031B000C701B6010E940A268C01FC01848183703C
:1031C000813011F081E018C0C8010E94C4187C0150
:1031D000C0E0D0E0F80120813181C217D30730F779
:1031E000F70161917191819191917F010E94CA18BB
:1031F0008111E8CF2196EECFCDB7DEB7E8E00C9491
:10320000C13B8F929F92AF92BF92CF92DF92EF928B
:10321000FF920F93CF93DF93FC0194819370DB01B6
:1032200014962C912370921BA1F57B016F01CF01A5
:103230000E94C418D82FC92FC7010E94C418AD2EF0
:10324000BC2E4C01C0E0D0E0F60180819181D70115
:103250004D915C91C817D907B0F4C417D507D8F4BD
:10326000F40121913191419151914F01D5016D911D
:103270007D918D919D915D0100E00E9493268111C9
:103280000BC02196E1CF81E0C417D50728F080E07C
:1032900003C0892F01C081E0DF91CF910F91FF9092
:1032A000EF90DF90CF90BF90AF909F908F90089558
:1032B00061E00E9418260E94050B08950E94250BCC
:1032C0000E940A260895A0E0B0E0E9E6F9E10C9436
:1032D000A33BFC01828193818617970720F07183BD
:1032E0006083CF0146C0248123708B01213089F097
:1032F00043E0169507954A95E1F7060F171F6930C9
:10330000710518F046E050E002C043E050E0040FC1
:10331000151F7B01CF010E945819C801880F991F02
:10332000880F991F0E945D206C010E945E19EC01BC
:10333000C114D104E1F0A880B9800E94C418A7018B
:10334000AE14BF0408F4A501440F551F440F551FC8
:10335000BC01C6010E94E13CC6010E94A7209F83D8
:103360008E83F982E8821B830A83CE0102C080E04B
:1033700090E0CDB7DEB7EAE00C94BF3B1F93CF934C
:10338000DF93EC01162F892BC9F46130B9F48091D9
:10339000F3039091F403009719F588E090E00E9400
:1033A0005D20009731F0EC012C813D8121603D834F
:1033B0002C839093F4038093F30312C088E090E091
:1033C0000E945D20009751F0FC0124813581212B62
:1033D00035832483BE010E94631902C080E090E01F
:1033E000DF91CF911F910895A0E0B0E0EAEFF9E1FD
:1033F0000C949C3B6C012A013B01122F302E0E9441
:10340000C4185C01F60184818370823009F082C0A7
:1034100080809180C0E0D0E0C815D905F0F47E012D
:10342000E80CF91CF694E794E894E0F8F701EE0F45
:10343000FF1FEE0FFF1FEA0DFB1D6081718182816E
:10344000938100E0A30192010E94932687FF03C0AD
:10345000E701229674014701DFCFF60140815181D7
:10346000C417D50720F0332009F469C013C0FE014A
:10347000EE0FFF1FEE0FFF1FEA0DFB1D20813181B4
:103480004281538100E0C301B2010E949326811161
:10349000EACF3DC0C301B2010E94CA1881114FC0DA
:1034A000C301B2010E94050BF601608171816E5F5C
:1034B0007F4FC6010E9463197C010E94250B2B01DE
:1034C0003C01E114F10409F440C0C7010E94C41892
:1034D0005C01CE01880F991F880F991F6501C80EE6
:1034E000D91EF701408151814250504C4C1B5D0B5D
:1034F000440F551F440F551F0896B6018A0D9B1D9A
:103500000E94E13CF6014082518262827382CE01C8
:1035100001960EC0C301B2010E94D727E60128819F
:10352000398197FF02C0820F931F8217930738F4E7
:10353000880F991F880F991F8A0D9B1D08C01123A2
:1035400021F0C301B2010E94391280E090E0CDB7B2
:10355000DEB7E1E10C94B83B0F9301E00E94F4194F
:103560000F910895A0E0B0E0E8EBFAE10C94A13BE4
:103570004B015C0169017A010E940A26EC0121E0FD
:10358000B701A6010E94AC1A7C01892BD9F18C816C
:103590008370813041F0823059F484E0E81AF108F8
:1035A00002E010E007C0C501B4010E9439122AC030
:1035B00001E010E0CE010E94C41848815981440FF7
:1035C000551F440F551F840F951FAC014E195F09FD
:1035D0005595479555954795401B510B440F551FE1
:1035E000440F551FB801660F771F660F771F6E0DCA
:1035F0007F1DC7010E94E13C28813981201B310BCE
:1036000039832883CDB7DEB7ECE00C94BD3B0F9334
:1036100000E00E94F419009731F0FC016081718193
:103620008281938104C06CEF7FEF8FEF9FEF0F914A
:103630000895A0E0B0E0EFE1FBE10C949D3BEC01CC
:10364000D62E0E94BE197C01009741F4CE010E9443
:103650004E0B6CEF7FEF8FEF9FEF4CC00E94C418B2
:103660008C0122E0D21641F06E01CC0CDD1CCC0C9A
:10367000DD1CA12CB12C28C0F70111821082CE01D3
:103680000097F1F06C01F2E0CF1AD10801970E9487
:103690003A0B2B013C01C6010E943A0B4B015C0125
:1036A00001E021E0B301A201C7010E94F4190097D3
:1036B00029F0FC0180829182A282B382C601E0CF10
:1036C000CE010E944E0B12C0F4E0AF1AB108209751
:1036D00069F00E94250BF801EA0DFB1DEC0DFD1DA4
:1036E00060837183828393832197EECF61E0C7016A
:1036F0000E941826CDB7DEB7E0E10C94B93BA0E0FC
:10370000B0E0E5E8FBE10C94A53BEC018B01C8803F
:10371000D980FB01E080F1808617970721F0CB016B
:103720000E94581902C000E010E0688179816E0D96
:103730007F1DCE010E946319EC010115110511F0E6
:103740000E945E192097A1F00E94C4188C01CE013E
:103750000E94C418A701440F551F440F551FCC0CDD
:10376000DD1CCC0CDD1CB8018C0D9D1D0E94E13CC4
:10377000CE01CDB7DEB7E8E00C94C13BA0E0B0E0ED
:10378000E4ECFBE10C94A53BEC018B010E94581981
:10379000C8010E9458196C81637028813981F80131
:1037A00080819181820F931F0E94BE19EC010E94BB
:1037B0005E196C010E945E197C01209749F1CE01CF
:1037C0000E94C4188C01C7010E94C418F7014081EF
:1037D0005181440F551F440F551FBC01C8010E9461
:1037E000E13CC6010E94C418F60140815181440F9A
:1037F000551F440F551FF701A081B181AA0FBB1FB0
:10380000AA0FBB1FBC01C8018A0F9B1F0E94E13C8D
:10381000CE01CDB7DEB7E8E00C94C13BA0E0B0E04C
:10382000E4E1FCE10C94A33B7C01EB0177FF02C0D7
:10383000C0E0D0E0C7010E945819F7010081118152
:1038400064816370C09FC001C19F900DD09F900D97
:1038500011240E94BE197C010E945E19E114F1043A
:10386000B9F00E94C4186C01C7010E94C4185C0121
:10387000000F111F000F111F219740F0A801B60182
:10388000C5010E94E13CA00EB11EF6CFC70102C0E7
:1038900080E090E0CDB7DEB7EAE00C94BF3B8F92BA
:1038A0009F92AF92BF92EF92FF920F931F93CF938D
:1038B000DF93FC018481837011E0813011F010E00E
:1038C00005C0DB0116968C9081103AC0EB01CF0148
:1038D0000E945819612F888199810E94BE198C011C
:1038E0000E945E190115110569F10E94C4187C013E
:1038F000C8010E94C4182881398121153105F1F0D1
:103900004A815B81FA01EE0FFF1FEE0FFF1FEE0DE4
:10391000FF1D80809180A280B380FC0181929192F2
:10392000A192B192CF012150310939832883AC8013
:10393000BD804A0D5B1D5B834A83DDCFC80104C097
:10394000CF0102C080E090E0DF91CF911F910F91F5
:10395000FF90EF90BF90AF909F908F90089588E078
:1039600090E00895EF92FF920F931F93CF93DF9310
:10397000FC0122813381232BF1F0EC010E94C41859
:103980007C016A817B81660F771F660F771FC701F5
:103990000E94531E8701E12CF12C88819981E81641
:1039A000F90648F4C8010E945C1FFFEFEF1AFF0AF6
:1039B0000C5F1F4FF2CFCDB7DEB7E6E00C94C33BF0
:1039C000EF92FF920F931F93CF93DF93FC0122811D
:1039D0003381232BC1F0EC0106960E94641FCE01B7
:1039E0000E94C4187C0100E010E0888199810817CA
:1039F000190748F4C7010E94EA1F0F5F1F4FF4E048
:103A0000EF0EF11CF2CFCDB7DEB7E6E00C94C33B6E
:103A1000AC018091800190917F01682F70E089173F
:103A2000C0F49B01290F311D35952795F901FF271A
:103A3000EE0FFF1FEE0FFF1FE957FE4F0190F081C1
:103A4000E02DE417F50718F481E0820FE6CF922FFE
:103A5000E6CF0895A2E0B0E0E0E3FDE10C94A33BE3
:103A60007C016B0180E2E7ECF1E0DF011D928A95B9
:103A7000E9F785E2A82E83E0B82E00E010E020915F
:103A80002303309124030217130748F4C501F601FC
:103A900009950F5F1F4FF4E0AF0EB11CF0CF06E6A3
:103AA00012E0F801329785919491F801009769F03E
:103AB000659174916115710529F0DB012D913C919F
:103AC000232B99F0F701099510C0859194910097E7
:103AD00061F0DC014D915D916D917C914C3F5F4FA8
:103AE0006F4F7F4F11F0F60109950C5F1F4FF2E009
:103AF00006381F07B1F60CEF1FEF609108017091B7
:103B000009016C3F2FEF7207F1F010930901009348
:103B1000080164507C4F7A836983BE016F5F7F4FD9
:103B200082E592E0F7010995E981FA818481958126
:103B3000BC016C7F83709927958384836C3FFFEF72
:103B40007F0739F7DACF2296EAE00C94BF3B9C015D
:103B500083E02C3F380738F091E02C5F374008F0C5
:103B600090E0892F01C080E081700895A0E0B0E06E
:103B7000ECEBFDE10C94A53B082FC091F803D0912C
:103B8000F903209709F400E08091FA0387FD02C051
:103B9000011184C01092FA031092840110928301E3
:103BA00000E0C0E0D0E0E0908501F0908601F09266
:103BB0008201E092810110927F01109280016CE5F8
:103BC0007FE188E09FE10E942A1DE0907F01E7E805
:103BD000F1E010E01E1551F0428153813496DF016F
:103BE00014972D913C91C217D30790F41031D1F165
:103BF0001093800134E0139FF0011124E957FE4F28
:103C0000608171817093840160938301F12E04C0FF
:103C1000C40FD51F1F5FDECFFE14C0F474E0F79E03
:103C2000F0011124E957FE4FC280D380D383C283B1
:103C30006081718164507C4FA601CE0184509C4FFD
:103C40000E94E13CCC0DDD1DF394E6CF1E1530F44F
:103C50006AEE7FE18DEC9FE10E942A1D50917F0169
:103C6000503149F4809181019091820190938401B7
:103C70008093830198CFD0938601C0938501011171
:103C800004C0D093F903C093F80380E094E08C1B48
:103C90009D0BCDB7DEB7E8E00C94C13BD093840117
:103CA000C093830180CFCF92DF92FF920F931F9337
:103CB000CF93DF938C010C5F1340F801A5E0F695DC
:103CC000E795AA95E1F7E953FE4FA0819801369553
:103CD00027953695279527704A2F50E0022E02C06F
:103CE000559547950A94E2F740FD5DC081E090E06C
:103CF00001C0880F2A95EAF78A2B8083809183017F
:103D0000909184010817190708F44BC0C0908101F5
:103D1000D09082010C151D0508F043C0EB01C801CD
:103D20000E94081DF0907F014F2D50E04F5F5F4FC4
:103D30004131510514F040E150E090E0481B590B2F
:103D40004150504C440F551F440F551F9C01220FEA
:103D5000331F220F331FB90169577E4F6B01C90111
:103D600085579E4F0E94E13CF60111830083D38367
:103D7000C283FFE0FF1518F0F394F0927F011091D9
:103D80007F01103171F44091C3015091C4016091E1
:103D9000C5017091C601640F751F70938201609315
:103DA000810180E001C081E0DF91CF911F910F91EF
:103DB000FF90DF90CF900895CF93DF93EB01FC014C
:103DC00025913491CB01F90109950396BC016C7FD3
:103DD000CE010E94531EDF91CF910895EF92FF9282
:103DE0001F93CF93DF93EC017B010E94DC1E182F01
:103DF000811107C0FE01329625913491C701F90166
:103E00000995812FDF91CF911F91FF90EF90089539
:103E1000FB01608171810E94EE1E08956C3F2FEFBF
:103E2000720729F064507C4F0E94EE1E089581E0D5
:103E30000895CF92DF92EF92FF921F93CF93DF937B
:103E40006C3F2FEF72078207920711F481E02CC0BC
:103E50006B017C010E946126182F8B7FB9F3C7018B
:103E6000B6010E940A26EC0126E0129FC00111242F
:103E7000BE01845B9D4F0E94EE1E8111E7CF113081
:103E800091F44C815D8143705527E0900801F090DA
:103E900009014E295F295D834C83CC5FD340D093C9
:103EA0000901C093080180E0DF91CF911F91FF903D
:103EB000EF90DF90CF900895FC0160817181828145
:103EC00093810E94191F0895CF93DF93FC012081F5
:103ED00031812C3FFFEF3F0711F481E03EC0EC0140
:103EE00080918301909184012817390798F04091BF
:103EF0008101509182012417350760F4C9010E94A5
:103F0000081D24E0829FB0011124FB01E957FE4FF8
:103F10002281338139832883E90185E0D695C795CD
:103F20008A95E1F7C953DE4F788136952795369506
:103F300027952770472F50E0022E02C055954795D0
:103F40000A94E2F740FDC9CF81E090E001C0880FFC
:103F50002A95EAF7872B888380E0DF91CF91089537
:103F6000A2E0B0E0E6EBFFE10C94A93B8C01FC0180
:103F7000808191818C5F93409A838983CE010196E1
:103F80000E94641F29813A8124503C4FF8013183FB
:103F900020832296E4E00C94C53BEF92FF921F939E
:103FA000CF93DF93EC017B01CB010E94B01F182F50
:103FB000811109C0FE01349625913491E701888171
:103FC0009981F9010995812FDF91CF911F91FF9080
:103FD000EF900895A2E0B0E0E0EFFFE10C94A13B88
:103FE0006C01FC0180809180A280B380C501B40186
:103FF0000E946126082F8B7FE1F1C501B4010E9468
:104000000A267C019A838983F6E00F9FC001112460
:10401000BE016F5F7F4F845B9D4F0E94CD1F182FA5
:10402000811117C00130A9F4E981FA8144815581D9
:10403000437055272091080130910901422B532BE1
:1040400055834483B7016C5F73407093090160939B
:104050000801C501B4010E946126682F89819A81F7
:104060000E941826F6016083718382839383812FD7
:1040700001C081E02296ECE00C94BD3BEF92FF92F0
:104080001F93CF93DF93EC017B01CB010E94641F50
:10409000182F81110BC0FE01349625913491E70150
:1040A0008881998184509C4FF9010995812FDF9176
:1040B000CF911F91FF90EF900895EF92FF920F9391
:1040C0001F93CF93DF930396EC01CC7F2091850162
:1040D0003091860180E094E0821B930B8C179D0742
:1040E00098F481E00E94B61D8C179D0768F480E06B
:1040F0000E94B61D8C179D0738F484E492E00E945C
:104100003212E12CF12C13C000918501109186012F
:10411000C80184509C4F7C01AE0160E070E00E94B9
:10412000F33CC00FD11FD0938601C0938501C70116
:10413000CDB7DEB7E6E00C94C33B8C3F2FEF920780
:1041400019F084509C4F089580E090E00895009706
:1041500019F08C5F934008958CEF9FEF08950296BD
:10416000FC0101900020E9F79F01281B390BC901D0
:1041700002960895CF93DF93EC010E94641F811192
:1041800005C0888199810E949D20F6CFDF91CF9153
:104190000895CF93DF93EC01888199810E949D203F
:1041A000EC01009731F0BC0184E892E00E94DC1E33
:1041B000F3CFDF91CF910895A0E0B0E0E2EEF0E21E
:1041C0000C94A33B8C017B01C1E0D0E0A12CB12C6D
:1041D000C12CD12CB6016A0D7B1D625B7C4FC801DE
:1041E0000E94CD3C892B81F4C333D10548F0F60100
:1041F000E25BFC4F849191E0E701988390E033C04B
:10420000F7011082CE012FC02196C333D10519F4D6
:10421000AA24A394B12CA5014C0D5D1D425B5C4FFB
:1042200020E030E0FA01E20FF31FE491EE2319F0F1
:104230002F5F3F4FF7CFC50101968C0D9D1D6C017F
:10424000C20ED31EFDEACF16F1E0DF0608F4C2CF9E
:10425000F7011082C0910A01D0910B01E090FC0798
:10426000F090FD0711C00097E9F5F2CFB801C70142
:1042700002960E94053D892B89F12197F7018081E3
:1042800091810E949D207C01E114F10479F7D8010D
:104290000D900020E9F7CD01801B910B02960E9442
:1042A0005D20EC010097E1F0B80102960E940E3DFE
:1042B0008091FC079091FD070E94A7209983888335
:1042C00080910A0190910B01019690930B018093CC
:1042D0000A01D093FD07C093FC0704C0CE0102C0C1
:1042E00080E090E0CDB7DEB7EAE00C94BF3B0F93DF
:1042F0001F93CF93DF93EC01C39700F540E050E0AC
:104300002197CA01825B9C4F209769F020E030E042
:10431000FC01E20FF31F14912F5F3F4F1111F8CFF3
:10432000420F531FEDCFA7EEB1E0FC0104910D93B6
:1043300031960111FBCF87EE91E019C000910A017F
:1043400010910B018091FC079091FD07009769F097
:104350000C171D0711F402960AC001501109FC0147
:10436000808191810E949D20F1CF80E090E0DF91DB
:10437000CF911F910F910895E0911F03F0912003B9
:10438000E80FF91F808180688083089520911F03C2
:1043900030912003820F931FFC0172836183089583
:1043A000E0913802E150E0933802EE0FFF0BE75C3A
:1043B000FD4F808191810895E0913802E03164F4ED
:1043C00021E02E0F20933802EE0FFF0BE75CFD4F2C
:1043D0009183808381E0089580E0089590E00E94B9
:1043E000DC21089580911D0390911E030E94BC2141
:1043F0008091FE070E94EE2108950E94DC2108951D
:10440000A0E0B0E0E6E0F2E20C949B3B60E3262EF5
:1044100066246394712C33243394EBEF8E2EE4E006
:104420009E2EF8E34F2E1092F2031092AF031092DB
:10443000F1031092B0031092AE0310920308109291
:10444000380210925A020E943D081092A70320924F
:10445000F801C1E0D0E0512C209709F44BC321971B
:10446000FE01E850FE4F1081183708F440C316399A
:1044700009F46CC108F064C0163809F437C158F566
:104480001E3709F41DC198F41A3709F416C148F40F
:10449000183709F4E3C0193709F024C38091FE07E7
:1044A00020C11C3709F4FCC008F41AC306C1123835
:1044B00009F411C140F4103809F40AC108F4C7C165
:1044C00081E090E00AC1143809F40AC108F00CC177
:1044D0001092030807C31E3809F41CC1B0F41A383F
:1044E00009F4BAC138F4183809F407C108F007C153
:1044F00081E4E0C01C3809F407C108F061C2809172
:10450000FE0790E00E94DC21EDC2123909F415C1CA
:1045100060F4103909F409C108F00AC18091FE075E
:104520009091FF070E947107DDC2143909F41CC184
:1045300008F009C16091FE077091FF0781E3E7C0B1
:10454000153A09F452C108F04AC01D3909F41AC1DC
:1045500020F5193909F405C1C0F4173909F4FCC074
:10456000183909F0BFC2E091040831E03E0F3093E2
:104570000408F0E0EE0FFF1FEB5FF74F4091FE07DE
:104580005091FF0751834083ADC21B3909F4F2C03B
:1045900008F0F5C010925902E7C0113A09F407C1BA
:1045A00048F41F3909F4F8C008F0FAC060E070E080
:1045B0008CE3EBC0133A09F401C108F008C1509133
:1045C00002085F5F50930208E0910408F0E0EE0FEC
:1045D000FF1FED5FF74F608171818AE298C01D3A3D
:1045E00009F470C1C0F4193A09F43BC130F4173A28
:1045F00009F411C108F405C123C11B3A09F43FC1F4
:1046000008F048C10E94D0218C010E94D021B8013D
:104610000E94C62167C2113B09F4B9C1B0F41F3A28
:1046200009F476C108F095C10E94D0218C010E9446
:10463000D0217C01B8010E94C62160911B037091BA
:104640001C039B0142E0C70117C1133B09F4F9C1E8
:1046500008F4BDC1143B09F41FC244C20E94D0211A
:104660005C010E94D0217C010E94D0218C010E941B
:10467000D0216C01B501C8010E94C621B601C70155
:104680000E94C621960141E0B701C8010E94FC07C3
:1046900020911B0330911C0340E0B701C801ECC01E
:1046A00000911B0310911C030E94D021B8010E94AD
:1046B000C62184E40E94F50615C20E94D021FACFDB
:1046C0000E94D021182F0E94D021BC01812F1FC031
:1046D00080E090E002C08FEF9FEF0E94FD2102C2B8
:1046E00083E30E94EE21FEC183E4E4CF8091FE07C4
:1046F0009091FF070E94FD21F5C189E3DBCF8091F6
:10470000190880935902EEC160E07AE38DE30E94BC
:104710001707E8C16091FE077091FF0780910008BC
:10472000909101080E944007DDC161E07AE3EECF7D
:104730001092040810920208D5C120910208222389
:1047400009F4D0C137C24092FE077BC16091FE07D9
:104750007091FF0787E3DBCF0E94D021BC0185E386
:10476000D6CF81E090E093C060910601709107017F
:1047700082E4CDCF0E94D021BC0180E3C8CF0E944B
:10478000D02184C060E070E08BE30E941707809125
:104790001D0390911E03A1CF0E94D021939577C055
:1047A0000E94D02160915A020E94C107C0C00E949D
:1047B000D02197FD97C1BC018FE2A9CF0E94D021E3
:1047C0008F3F910511F008F0F5C1019686CF8091D9
:1047D0001D0390911E030E94BC218091FE079091C1
:1047E000FF070E94710781E165CF60E070E08AE316
:1047F0000E94170780911D0390911E030E94FD21C6
:104800002BC00E94D0218F3F910511F008F0D2C13A
:10481000BC018EE27CCF60E070E08AE30E94170763
:1048200080911D0390911E030E94FD2180911B0326
:1048300090911C030E94FD2160915A02615086C034
:10484000609106017091070182E40E94170762E0FF
:104850007AE38DE30E94170780911B0390911C035C
:104860003CCF0E94D021009709F43CC160911B030A
:1048700070911C039B0143E00E94FC0733C10E941E
:10488000D0218F3F910511F008F094C101960E944C
:10489000FD2196C00E94D0219091FE078093F203E3
:1048A000891708F01FC11F929F931F928F939F92A9
:1048B0008F920E9467110F900F900F900F900F90A2
:1048C0000F9078C10E944A080E94640BAB01BC01A2
:1048D0009091A70391118FC1A0915902AA2309F4C5
:1048E00001C14C3F8FEF58076807780709F4FAC0F9
:1048F00022E780911C0890911D080E947B26609100
:104900001C0870911D088AE090E00E94933DEAC067
:104910000E94D0218C018F3F910511F008F04AC10F
:104920000E94D02140915A02602F0E948F078091EF
:104930001D0390911E030E94FD2180911D03909103
:104940001E030E94FD2160915A026F5F60935A021C
:10495000C9C00E94D021892BC1F080911D03909184
:104960001E030E94BC210E94D021082F000F000FBF
:104970000E94D021182F110F0E94D021102B612FDF
:10498000682B86E30E942C07ADC080E193CEE091B6
:104990001F03F091200340911D0350911E03E40F6B
:1049A000F51F3081313309F005C1018112810E9468
:1049B000E406B80180E090E00E9466390E9440075A
:1049C00080911D0390911E030E94BC218BC0E09139
:1049D0001F03F091200380911D0390911E03E80FA7
:1049E000F91F7081713419F40E94E40603C083E456
:1049F0000E94F5060E944A08009709F473C00E94BD
:104A00001A15009709F46EC063E00E9418266B0126
:104A10007C010E94D0218C01C701B6010E94050BC8
:104A200061E0C8010E9462148C010E94250B0115EF
:104A3000110509F457C0F801608371838283938361
:104A400051C010925902E0911F03F0912003209170
:104A50001D0330911E03E20FF31FB081B03131F01E
:104A6000B13309F0A7C0818192810CC0F091FE079B
:104A7000F83331F08091190390911A030E94BC2100
:104A800080E090E00E94FD218091FE0790E00E946E
:104A9000FD210E94E40626C0E091380220911D030A
:104AA00030911E03EE0FFF0BE95CFD4F8081918179
:104AB000892BA1F0A0911F03B0912003FD01E20F0B
:104AC000F31F10810E94E4061A5F612F70E0762FB9
:104AD000662763608DE30E94170702C0318320833D
:104AE0000E94F2215091A703511185C0B5CC5110FD
:104AF00011C003C0511010C010E00E949216582E31
:104B00006091060170910701709322036093210365
:104B100030920308111104C031E053124BC069C038
:104B2000103358F4511609F496CCD1E05D1242C00E
:104B30008DE691E00E949C1245C08FE2851508F435
:104B400039C0E52DF0E0EB5CFA4F849190E0880FDE
:104B5000991FFC01EB59FA4F74917E3F21F4FC013F
:104B6000EA59FA4FF2CF7F3F29F124E0729FA0016A
:104B700011244B53594FFA01B491B1130BC04F3F5D
:104B8000FFEF5F07B9F0DE01A850BE4FB3016C1B09
:104B90007D0B07C00196DDCFC034D1058CF5219681
:104BA000FD93FB01EC0FFD1FE40FF51FF491F111D4
:104BB000F3CF52CC81EB93E00E949C1290911908A4
:104BC000911106C081E021C08B3171F0813089F0F4
:104BD0001092F1030E9492168A30B1F7C091F2034D
:104BE000CC2309F420CCF4CF5091FE075093F2036C
:104BF000EFCF80E00AC0C0911908C11114CCE2CFF8
:104C000087E295E00E943212D9CFCDB7DEB7E2E15C
:104C10000C94B73B6C3F2FEF72078207920729F085
:104C20006C7FCB0184509C4F089580E090E0089504
:104C30000F931F93009729F46CEF7FEF8FEF9FEF97
:104C400011C08C010C5F134020E030E0862F90E013
:104C5000A0E0B0E0A068BF6FBC01CD01602B712B5C
:104C6000822B932B1F910F910895CF92DF92EF9299
:104C7000FF926B017C019B01AC010E943E3B8823AB
:104C800029F06FEF7FEF8FEF9FE702C0C701B601FA
:104C9000FF90EF90DF90CF900895BC01990F880BA3
:104CA000990B0E9468390E9435260895882329F0BF
:104CB00060E070E080E89FE3089560E070E0CB0181
:104CC00008950F931F938B019C01002711272078D3
:104CD0000115110520483F4F39F46115710520E891
:104CE00082072FEF920711F484E002C0862F8370B1
:104CF0001F910F910895A6E0B0E0E1E8F6E20C9470
:104D0000AB3BE3E9FDE3FA83E983AFECBDE3BC83AE
:104D1000AB839E838D83CE0101960E94DD2726966C
:104D2000E2E00C94C73B8F929F92AF92BF92CF92DA
:104D3000DF92EF92FF920F93CF936B017C014901B9
:104D40005A010E946126C82FC501B4010E94612644
:104D50009C2F981B892F09F07AC0C230E1F0C43033
:104D600021F0C13009F064C041C0C1E0A501940147
:104D7000C701B6010E94863A18160CF0C0E0A501E2
:104D80009401C701B6010E94B938881F8827881F7F
:104D9000C81B8C2F5CC08CEF88168FEF9806A80676
:104DA000B80631F094012C7FB90164507C4F02C0E9
:104DB00060E070E09CEFC9169FEFD906E906F9069E
:104DC00029F0C6018C7F84509C4F02C080E090E0A7
:104DD0000E94053D9C0141E0181619060CF040E0C8
:104DE000331F3327331F431B842F31C0011120C0D1
:104DF0008CEF88168FEF9806A806B80631F0C4012C
:104E00008C7FBC0164507C4F02C060E070E09CEF7E
:104E1000C9169FEFD906E906F90629F0C6018C7F6D
:104E200084509C4F02C080E090E00E9401190FC0A6
:104E300081E08C149D04AE04BF0408F080E001E022
:104E4000C814D904EA04FB0408F000E0801BCF91E9
:104E50000F91FF90EF90DF90CF90BF90AF909F9019
:104E60008F900895CF92DF92EF92FF92CF936B01D4
:104E70007C010E946126823019F1843019F0813062
:104E800091F509C0C1E020E030E0A901C701B601F9
:104E90000E94B93826C08CEFC8168FEFD806E806F6
:104EA000F80631F0C6018C7FFC01E450FC4F02C0D3
:104EB000E0E0F0E0C1E0A081B181AB2BA9F413C028
:104EC0008CEFC8168FEFD806E806F80631F0960189
:104ED0002C7FF901E450FC4F02C0E0E0F0E0C1E0BB
:104EE0008081811101C0C0E08C2FCF91FF90EF90A5
:104EF000DF90CF900895CF92DF92EF92FF926B01F7
:104F00007C010E9461268130D1F0823081F58CEFE6
:104F1000C8168FEFD806E806F80631F0C6018C7F78
:104F2000FC01E450FC4F02C0E0E0F0E0DF010D9036
:104F30000020E9F71197CD018E1B9F0B1AC08CEF53
:104F4000C8168FEFD806E806F80631F096012C7FD8
:104F5000F901E450FC4F02C0E0E0F0E08081918173
:104F600034813370323029F49695879502C080E001
:104F700090E0FF90EF90DF90CF900895CF92DF9276
:104F8000EF92FF926B017C010E946126843019F43C
:104F9000C701B60107C0C701B6010E94621260E0F6
:104FA00070E0CB01FF90EF90DF90CF9008950E94CA
:104FB000BE270E943039CB010895A0E0B0E0E3EEB7
:104FC000F7E20C949D3BEC016A017B01522E0C81AF
:104FD0001D81BA01C7010E94612650920D0197E61A
:104FE0009515A8F0E5E65E16C0F5F8E55F16F9F050
:104FF000F51528F02BEB250D233078F163C033E64F
:10500000531609F449C044E654125CC010C05FE670
:10501000551669F0551520F069E6561253C007C0C1
:1050200073E7571609F442C0A8E75A124BC0843000
:1050300009F048C06C2D7D2D8E2D9F2D0E9430399A
:105040007F936F938CE091E09F938F938BE592E039
:105050009F938F930E94F93DACC0843099F5FF92E5
:10506000EF92DF92CF928CE091E09F938F938BE54C
:1050700092E09F938F930E94F93DEA81FB81B801F2
:105080008BE592E009958DB79EB708960FB6F89418
:105090009EBF0FBE8DBF09C1823049F6B601C70160
:1050A0000E940A26FC01608170E0CACF823051F470
:1050B0000A80DB81C02DB601C7010E940A26B80113
:1050C000FE01F2C0A601B7014C3F5F4F6F4F7F4F0B
:1050D00031F4EA81FB81B80181E791E0E5C08230DB
:1050E00051F138F4882309F450C0813009F46EC0BE
:1050F000DCC08330A9F1843009F0D7C0FF92EF9271
:10510000DF92CF9283EF99E09F938F938BE592E0AC
:105110009F938F930E941B3EEA81FB81B8018BE530
:1051200092E00995ADB7BEB718960FB6F894BEBF1A
:105130000FBEADBFBAC0E881F981B80187E290E047
:105140000995AA80BB80B601C7010E940A26B80152
:10515000F5010995E881F981B80187E290E0A4C0E2
:10516000B601C7010E940A26FC01828193810E9438
:105170009D20009719F00E94730802C080E090E023
:105180009F938F9382EE99E00CC0C6018C7F969519
:105190008795969587950E9477219F938F9385EDAC
:1051A00099E09F938F938BE592E09F938F930E945A
:1051B0001B3EEA81FB81B8018BE592E009950F90D7
:1051C0000F900F900F900F900F906FC0B601C70116
:1051D0000E940A26FC0134813370432EC080D180A6
:1051E0000E945819E881F981442039F041E04412C5
:1051F00002C088E203C08BE701C08BE5B80190E0F4
:105200000995A12CB12CE12CF12C360191E0691A01
:105210007108EC14FD04C1F10E945E194C010E945A
:105220005819C4010E94C4188A0D9B1DFC014081BD
:10523000518162817381252DCE010E94DD27E61404
:10524000F70438F0F1E0CF16D104B9F481E0481248
:1052500014C0E881F98152E0451202C0E0FE03C0AB
:105260008CE290E002C08AE390E0B8010995E88101
:10527000F981B80180E290E00995EFEFEE1AFE0A9D
:10528000F4E0AF0EB11CC5CF0E945E19E881F98130
:10529000442039F0D1E04D1202C089E203C08DE70D
:1052A00001C08DE5B80190E00995CDB7DEB7E0E12A
:1052B0000C94B93BCF93C82F82E090E00E945D2010
:1052C000009711F0FC01C08362E00E941826CF9184
:1052D0000895CF92DF92EF92FF921F93CF93DF93C7
:1052E000EC016A017B01122FCB01BA010E94D72782
:1052F000FE0101900020E9F73197EC1BFD0B97FFB1
:1053000002C08E0F9F1F8E179F0758F0112321F0A8
:10531000C701B6010E9439126CEF7FEF8FEF9FEF4C
:1053200005C0C80FD91F88810E945A29DF91CF91EB
:105330001F91FF90EF90DF90CF900895A0E0B0E034
:10534000E4EAF9E20C94A13B6C018B01EC010990B9
:105350000020E9F72197C81BD90BC69F7001C79F92
:10536000F00CD69FF00C1124C70101960E945D201D
:105370005C01009791F04C010115110551F0AE014F
:10538000B601C4010E94E13C8C0E9D1E0150110922
:10539000F3CFF501EE0DFF1D108262E0C5010E9402
:1053A0001826CDB7DEB7ECE00C94BD3BCF93DF936E
:1053B000EC010E94A71D882331F062E0CE010E941B
:1053C00018260E94050BDF91CF910895CF93DF93AC
:1053D000D82FC92F0E94A71D882329F00E94250BD2
:1053E0000E940A2602C08D2F9C2FDF91CF91089535
:1053F000EF92FF920F931F93CF93DF93FB012681D0
:10540000211134C0EB018C010E94D6298881998139
:1054100001960E945D207C01C8010E94E629E114EA
:10542000F10411F1D701FD01EE19FF0948815981FD
:10543000452BA9F0EA81FB81E80FF91F30813D93EC
:105440006881798161507109798368834A815B81C0
:105450002C813D81240F351F3B832A83E4CFEE0D41
:10546000FF1D1082C70102C080E090E0CDB7DEB71B
:10547000E6E00C94C33BA0E0B0E0E1E4FAE20C9477
:10548000A33B5C018B01FC01C080D180C114D1041D
:1054900041F0E60109900020E9F72197CC19DD09D8
:1054A00002C0C0E0D0E0C6010E94D6290C0F1D1F2B
:1054B000C80101960E945D207C01C6010E94E62978
:1054C000E114F10481F0AE01BC01C7010E94E13C8E
:1054D000F701E00FF11F1082F501F182E082C701B0
:1054E0008C0F9D1F02C080E090E0CDB7DEB7EAE0F0
:1054F0000C94BF3BCF93C82FCB0161E070E00E94BA
:105500003B2A009711F0FC01C08380E090E0CF912E
:105510000895EF92FF920F931F93CF93DF938C0127
:105520007B01FC0101900020E9F73197EF01C81BD6
:10553000D90B0E94D629BE01C7010E943B2A7C01DB
:10554000C8010E94E629E114F10429F0AE01BC0172
:10555000C7010E94E13C80E090E0CDB7DEB7E6E015
:105560000C94C33BA0E0B0E0E8EBFAE20C949F3B64
:105570006C017B015A0139010E94D629C5010E94A4
:10558000D6294701800E911EC40101960E945D201C
:10559000EC01C5010E94E6295C01C6010E94E629D2
:1055A000209791F0A701BC01CE010E94E13CB5011A
:1055B000660D771DA801CE018E0D9F1D0E94E13C56
:1055C000FE01E80DF91D1082CE01CDB7DEB7EEE089
:1055D0000C94BB3BADE0B0E0E0EFFAE20C949B3BF7
:1055E0006C01342F252FCB0149875A876B877C8725
:1055F00018861F824AE75AE25A83498369E87AE2A9
:105600007C836B831E0147E0240E311C3E822D8279
:10561000632F722F0E946126813029F088248394A1
:10562000912C1D860FC069857A858B859C850E948B
:105630000A26FC0194819370923081F380809180DE
:1056400081E08D87E12CF12CA12CB12C2401EFEF0E
:105650004E1A5E0A36016A0C7B1CF30150815523F9
:1056600009F491C065E270E0C3010E94FA3C009722
:1056700011F08C0106C0D3010D900020E9F71197BD
:105680008D01061917093501600E711E69857A852D
:105690008B859C850E94050BC6010E94D6298F81AF
:1056A0009885009749F0FC0101900020E9F73197B7
:1056B000BF01681B790B02C060E070E09501A60194
:1056C0000E94B22A98878F83C6010E94E6296C0146
:1056D0000E94250B69877A878B879C87F601E60DE8
:1056E000F71DB0815301B53209F0B4CFFFEFAF1A07
:1056F000BF0AF601EA0DFB1D10810E94050BC601D1
:105700000E94D6291123E9F0530122E0A20EB11C18
:10571000153231F4B10185E290E00E947A2A28C066
:105720007D84772049F069857A858B859C850E94E8
:105730000A260E94C41802C0CE010996E814F90492
:1057400010F0720115C03701EFEF6E1A7E0AEE0CF1
:10575000FF1CEE0CFF1CFC01EE0DFF1D4081518172
:1057600062817381212FCE0101960E94DD27730192
:10577000C6010E94E6296C010E94250B69877A8781
:105780008B879C8767CF8E149F0429F064EF7FEF8F
:105790008FEF9FEF05C062E08F8198850E941826E9
:1057A0002D96E2E10C94B73B0F931F93AB01FB01E5
:1057B00001900020E9F731978F01061B170BDC01E0
:1057C0000D900020E9F71197BD01681B790B20E0CF
:1057D00030E00E94B22A62E00E9418261F910F91C9
:1057E0000895FC0101900020E9F79F01281B390B67
:1057F000C90108950895A2E0B0E0E1E0FCE20C9454
:105800009D3B6B017C0120E030E0A9010E94B9388A
:1058100087FF0EC0C701B60190580E94FB2B9B0169
:10582000AC0160E070E080E89FE30E94BE385EC09B
:1058300020E030E040E05FE3C701B6010E94863A15
:1058400087FD19C0AE014F5F5F4FC701B6010E94CF
:10585000703A19811F5F183028F060E070E080E82E
:105860009FE744C020E030E040E05FE30E948B3AD5
:105870006B017C0101C010E001E0812C912C5401EE
:10588000412C512C80E8682E8FE3782E602F70E039
:1058900080E090E00E9466399B01AC01C701B6012F
:1058A0000E94BE389B01AC01C301B2010E948B3A39
:1058B0002B013C019B01AC01C501B4010E944D3894
:1058C0004B015C010F5F093009F720E030E040E850
:1058D0005FE30E944D38115048F09B01AC016B0111
:1058E0007C01C701B6010E948B3AF5CF6B017C01A8
:1058F000C701B6012296E0E10C94B93B4F925F924A
:105900006F927F928F929F92AF92BF92CF92DF92CF
:10591000EF92FF921F93CF93DF9300D0CDB7DEB706
:10592000AE014F5F5F4F0E94703A2B013C0120E0B7
:1059300030E040E05FE30E94B938882311F115E0C0
:1059400098E1C92E92E7D92E91E3E92E9FEBF92E2B
:10595000C701B6010E94FB2B4B015C01A301920120
:105960000E944C38A50194010E94BE389B01AC01F5
:10597000C701B6010E944C386B017C01115041F700
:1059800008C088E1C82E82E7D82E81E3E82E8FEB8D
:10599000F82E69817A81072E000C880B990B0E94E2
:1059A000683928E132E741E35FE30E948B3AA701BF
:1059B00096010E944D380F900F90DF91CF911F916B
:1059C000FF90EF90DF90CF90BF90AF909F908F901F
:1059D0007F906F905F904F900895A0E0B0E0E3EF6C
:1059E000FCE20C949D3B6B017C0129013A01CA0148
:1059F000B9010E9437394B015C010E9466399B0155
:105A0000AC01C301B2010E94B938811126C000E087
:105A100010E0D0E8CFE381149104A104B104C9F0EF
:105A200080FE0AC0A7019601B8018D2F9C2F0E940D
:105A30008B3A8B01D82FC92FB694A794979487944B
:105A4000A7019601C701B6010E948B3A6B017C0148
:105A5000E2CFB8018D2F9C2F0CC0C701B6010E9468
:105A60007E2C9B01AC01C301B2010E948B3A0E94C3
:105A7000FB2B6B017C01C701B601CDB7DEB7E0E1BE
:105A80000C94B93B883028F08E3010F4885001C057
:105A90008E5091E001C0990F8A95EAF7892F0895F9
:105AA00041E050E060E070E004C0440F551F661F05
:105AB000771F8A95D2F740955095609570958091A3
:105AC0007F0290918002A0918102B09182024823CE
:105AD00059236A237B2340937F0250938002609373
